{
  "transactions": [
    {
      "hash": "0x23f5663b946de814760baf9348ced71bddaf8f25d3d70780804902495ee75d34",
      "transactionType": "CALL",
      "contractName": "LinkToken",
      "contractAddress": "0x779877a7b0d9e8603169ddbd7836e478b4624789",
      "function": "transferAndCall(address,uint256,bytes)",
      "arguments": [
        "0x9DdfaCa8183c41ad55329BdeeD9F6A8d53168B1B",
        "3000000000000000000",
        "0xce5864f5e2b523cfe32b1f33ae176953d0a8fa08af1af62e51fc7b878a9d8436"
      ],
      "transaction": {
        "from": "0x19a0f327f8e6104763d9fd92b0245aef18e6a8e5",
        "to": "0x779877a7b0d9e8603169ddbd7836e478b4624789",
        "gas": "0x14cbb",
        "value": "0x0",
        "input": "0x4000aea00000000000000000000000009ddfaca8183c41ad55329bdeed9f6a8d53168b1b00000000000000000000000000000000000000000000000029a2241af62c000000000000000000000000000000000000000000000000000000000000000000600000000000000000000000000000000000000000000000000000000000000020ce5864f5e2b523cfe32b1f33ae176953d0a8fa08af1af62e51fc7b878a9d8436",
        "nonce": "0x47",
        "chainId": "0xaa36a7"
      },
      "additionalContracts": [],
      "isFixedGasLimit": false
    }
  ],
  "receipts": [
    {
      "status": "0x1",
      "cumulativeGasUsed": "0x9f1081",
      "logs": [
        {
          "address": "0x779877a7b0d9e8603169ddbd7836e478b4624789",
          "topics": [
            "0xddf252ad1be2c89b69c2b068fc378daa952ba7f163c4a11628f55a4df523b3ef",
            "0x00000000000000000000000019a0f327f8e6104763d9fd92b0245aef18e6a8e5",
            "0x0000000000000000000000009ddfaca8183c41ad55329bdeed9f6a8d53168b1b"
          ],
          "data": "0x00000000000000000000000000000000000000000000000029a2241af62c0000",
          "blockHash": "0x902a620b88c616c25c4c8b6132a41b30f34ab576fceaf1c06832426d754250f9",
          "blockNumber": "0x934c49",
          "blockTimestamp": "0x691c0b78",
          "transactionHash": "0x23f5663b946de814760baf9348ced71bddaf8f25d3d70780804902495ee75d34",
          "transactionIndex": "0x57",
          "logIndex": "0x82",
          "removed": false
        },
        {
          "address": "0x779877a7b0d9e8603169ddbd7836e478b4624789",
          "topics": [
            "0xe19260aff97b920c7df27010903aeb9c8d2be5d310a2c67824cf3f15396e4c16",
            "0x00000000000000000000000019a0f327f8e6104763d9fd92b0245aef18e6a8e5",
            "0x0000000000000000000000009ddfaca8183c41ad55329bdeed9f6a8d53168b1b"
          ],
          "data": "0x00000000000000000000000000000000000000000000000029a2241af62c000000000000000000000000000000000000000000000000000000000000000000400000000000000000000000000000000000000000000000000000000000000020ce5864f5e2b523cfe32b1f33ae176953d0a8fa08af1af62e51fc7b878a9d8436",
          "blockHash": "0x902a620b88c616c25c4c8b6132a41b30f34ab576fceaf1c06832426d754250f9",
          "blockNumber": "0x934c49",
          "blockTimestamp": "0x691c0b78",
          "transactionHash": "0x23f5663b946de814760baf9348ced71bddaf8f25d3d70780804902495ee75d34",
          "transactionIndex": "0x57",
          "logIndex": "0x83",
          "removed": false
        },
        {
          "address": "0x9ddfaca8183c41ad55329bdeed9f6a8d53168b1b",
          "topics": [
            "0x1ced9348ff549fceab2ac57cd3a9de38edaaab274b725ee82c23e8fc8c4eec7a",
            "0xce5864f5e2b523cfe32b1f33ae176953d0a8fa08af1af62e51fc7b878a9d8436"
          ],
          "data": "0x0000000000000000000000000000000000000000000000021cb950427ec2f6d8000000000000000000000000000000000000000000000002465b745d74eef6d8",
          "blockHash": "0x902a620b88c616c25c4c8b6132a41b30f34ab576fceaf1c06832426d754250f9",
          "blockNumber": "0x934c49",
          "blockTimestamp": "0x691c0b78",
          "transactionHash": "0x23f5663b946de814760baf9348ced71bddaf8f25d3d70780804902495ee75d34",
          "transactionIndex": "0x57",
          "logIndex": "0x84",
          "removed": false
        }
      ],
      "logsBloom": "0x00000004000000000000000000000000000000000020000000000000020000000000001000000000000400000000000000000000000000c00000000000000000000000000000000000000008000000000000000000000000000020000020000008000000000000000000000000000000000000000000000000000090000040000000000000000000000000010000800000000020000000000000000000000000000000000000000000000000010000000000000000000000000004000000000000000002000000000000000000000000000000000000000100000000000000000010000000000000800000000000000000000000000000000000000000000000",
      "type": "0x2",
      "transactionHash": "0x23f5663b946de814760baf9348ced71bddaf8f25d3d70780804902495ee75d34",
      "transactionIndex": "0x57",
      "blockHash": "0x902a620b88c616c25c4c8b6132a41b30f34ab576fceaf1c06832426d754250f9",
      "blockNumber": "0x934c49",
      "gasUsed": "0xf0e5",
      "effectiveGasPrice": "0xf63f8",
      "from": "0x19a0f327f8e6104763d9fd92b0245aef18e6a8e5",
      "to": "0x779877a7b0d9e8603169ddbd7836e478b4624789",
      "contractAddress": null
    }
  ],
  "libraries": [],
  "pending": [],
  "returns": {},
  "timestamp": 1763445626750,
  "chain": 11155111,
  "commit": "7880417"
}